:020000002529B0
:06000600000000000800EC
:0E000C00213083120313FD00FD0B0A280800AB
:10001A000F3083120313FC004730FD00FD0B132839
:0A002A00FC0B132800000000080082
:1000340083120313EE1B20280613212806176E1BB8
:100044002528861226288616EE1A2A2806122B2818
:1000540006166E1A2F28861130288615661834283D
:10006400861435288610061503200611EE193C283F
:1000740006133D2806176E19412886124228861653
:10008400EE1846280612472806166E184B288611C5
:100094004C28861566185028861451288610061593
:1000A40003200611661C58280D2059280620080034
:1000B4008312031366106D08EE001A2066140800FC
:0E00C4008312031365088A0064088200080096
:1000D2008316031306118610861106128612061362
:1000E20083120611861006138612061286110D203F
:1000F2000D200D20061686150615032006110D206B
:100102000615032006110D200615032006110D20E9
:1001120086110615032006110D200615032006116F
:10012200061206170615032006110D200613861562
:1001320006150320061186110615032006110D204F
:1001420006150320061186150615032006110D203B
:100152008611061503200611061786160616861541
:0C0162000615032006110D20661408008D
:0E016E000030831203138C1A0130F0000800D9
:10017C00831203131A08F100981CC62818121816BB
:06018C007108F0000800FC
:1001920083160313981690308312980083168717DC
:1001A200071383128C1ED8281A08F000D2280800E0
:1001B20062208A110A128000840AE40A0319E50AFD
:0801C200F003031DD928080019
:1001CA00F728803083120313E9000A29C030E900B6
:1001DA000A299430E9000A29D430E9000A29803032
:1001EA00E9000A29831203136908013A0319E62868
:1001FA006908023A0319EB286908033A0319EE2839
:10020A006908043A0319F128F4286A03F000690816
:10021A00F0077008E9007008EE001A206610EC0179
:10022A006C086B0784000008031923296C086B0704
:10023A0084000008ED005A20EC0A1529661408000B
:10024A005222313083160313BF003230C0003330DC
:10025A00C1003430C2003530C3003630C4003730F4
:10026A00C5003830C6003130C7003230C8003130DE
:10027A00C9003230CA00CB0169200130EE001A20D1
:10028A000C30EE001A200130E9000130EA0020307B
:10029A00EB00E5200230E9000130EA00A030EB0073
:1002AA00E5203330831699001815C9208316CB012F
:1002BA00B72070080319E729E7010C306702031811
:1002CA007429B7207008031973296708BF3EE8002C
:1002DA00BE206808840070088000E70A6229831635
:1002EA0041083F06F0004308F00645087006F10091
:1002FA00470849060130031D0030F0007108F00676
:10030A000319E72942084006F0004408F0064608A7
:10031A007006F10048084A060130031D0030F0005B
:10032A007108F0060319E7294908333A031DA4297D
:10033A004A08343A031DA4290130F100A529F10124
:10034A004908353A031DB0294A08303A031DB02935
:10035A000130F000B129F0017108F0060319D5291E
:10036A0001308312EE001A200130E9000130EA0060
:10037A005330EB00E5200230E9000130EA00AF30EB
:10038A00EB00E5201F30FB007130FC001E30FD0041
:10039A00FD0BCD29FC0BCD29FB0BCD290000E7294C
:1003AA0083120130EE001A200130E9000130EA0020
:1003BA003130EB00E5200230E9000130EA0042303A
:0803CA00EB00E5205D29E829A4
:1004A40020308400443083120313F000EE30E40063
:1004B4000130E500D920A03084001F308312F00001
:0C04C4003230E4000230E500D9200800CE
:1003DC00493443344534203452344634493444345B
:1003EC002034503452344F344A344534433454342A
:0203FC000034CB
:1003FE0020344E344F345434203441345534543434
:10040E0048344F3452344934533445344434203410
:02041E000034A8
:10042000203441344334433445345334533420343A
:10043000443445344E344934453444342034203433
:02044000003486
:1004420020342034203420342034203459344F34A2
:1004520055342034203420342034203420342034C5
:02046200003464
:100464005334573441345034203459344F34553490
:0E047400523420344334413452344434003482
:1004820020344134523445342034503445345234CB
:100492004D344934543454344534443420340034D3
:02400E004A2F37
:00000001FF
